{
  "contractName": "Vote_Token",
  "abi": [
    {
      "constant": true,
      "inputs": [],
      "name": "name",
      "outputs": [
        {
          "name": "",
          "type": "string"
        }
      ],
      "payable": false,
      "stateMutability": "view",
      "type": "function"
    },
    {
      "constant": true,
      "inputs": [],
      "name": "totalVotes",
      "outputs": [
        {
          "name": "",
          "type": "uint256"
        }
      ],
      "payable": false,
      "stateMutability": "view",
      "type": "function"
    },
    {
      "constant": true,
      "inputs": [],
      "name": "totalVotesCasted",
      "outputs": [
        {
          "name": "",
          "type": "uint256"
        }
      ],
      "payable": false,
      "stateMutability": "view",
      "type": "function"
    },
    {
      "constant": true,
      "inputs": [],
      "name": "symbol",
      "outputs": [
        {
          "name": "",
          "type": "string"
        }
      ],
      "payable": false,
      "stateMutability": "view",
      "type": "function"
    },
    {
      "constant": true,
      "inputs": [
        {
          "name": "",
          "type": "bytes32"
        }
      ],
      "name": "vote",
      "outputs": [
        {
          "name": "_id",
          "type": "uint256"
        },
        {
          "name": "_spent",
          "type": "bool"
        },
        {
          "name": "_party",
          "type": "string"
        },
        {
          "name": "_constituency",
          "type": "string"
        },
        {
          "name": "_time",
          "type": "uint256"
        }
      ],
      "payable": false,
      "stateMutability": "view",
      "type": "function"
    },
    {
      "constant": true,
      "inputs": [],
      "name": "state",
      "outputs": [
        {
          "name": "",
          "type": "uint8"
        }
      ],
      "payable": false,
      "stateMutability": "view",
      "type": "function"
    },
    {
      "constant": true,
      "inputs": [],
      "name": "admin",
      "outputs": [
        {
          "name": "",
          "type": "address"
        }
      ],
      "payable": false,
      "stateMutability": "view",
      "type": "function"
    },
    {
      "inputs": [
        {
          "name": "_name",
          "type": "string"
        }
      ],
      "payable": false,
      "stateMutability": "nonpayable",
      "type": "constructor"
    },
    {
      "anonymous": false,
      "inputs": [
        {
          "indexed": false,
          "name": "_voterid",
          "type": "bytes32"
        },
        {
          "indexed": true,
          "name": "_party",
          "type": "string"
        },
        {
          "indexed": true,
          "name": "_constituency",
          "type": "string"
        }
      ],
      "name": "VoteEvent",
      "type": "event"
    },
    {
      "anonymous": false,
      "inputs": [
        {
          "indexed": false,
          "name": "_totalVotes",
          "type": "uint256"
        }
      ],
      "name": "VotingStartEvent",
      "type": "event"
    },
    {
      "anonymous": false,
      "inputs": [
        {
          "indexed": true,
          "name": "_constituency",
          "type": "string"
        },
        {
          "indexed": true,
          "name": "_party",
          "type": "string"
        }
      ],
      "name": "PartyRegistryEvent",
      "type": "event"
    },
    {
      "anonymous": false,
      "inputs": [
        {
          "indexed": false,
          "name": "_totalVotesCasted",
          "type": "uint256"
        }
      ],
      "name": "VotingEndEvent",
      "type": "event"
    },
    {
      "anonymous": false,
      "inputs": [
        {
          "indexed": false,
          "name": "_name",
          "type": "string"
        },
        {
          "indexed": false,
          "name": "_symbol",
          "type": "string"
        }
      ],
      "name": "RegisteringStartEvent",
      "type": "event"
    },
    {
      "constant": false,
      "inputs": [
        {
          "name": "_constituency",
          "type": "string"
        },
        {
          "name": "_party",
          "type": "string"
        }
      ],
      "name": "registerParty",
      "outputs": [],
      "payable": false,
      "stateMutability": "nonpayable",
      "type": "function"
    },
    {
      "constant": false,
      "inputs": [],
      "name": "startVoting",
      "outputs": [],
      "payable": false,
      "stateMutability": "nonpayable",
      "type": "function"
    },
    {
      "constant": false,
      "inputs": [],
      "name": "endVoting",
      "outputs": [],
      "payable": false,
      "stateMutability": "nonpayable",
      "type": "function"
    },
    {
      "constant": false,
      "inputs": [
        {
          "name": "x",
          "type": "bytes"
        },
        {
          "name": "_constituency",
          "type": "string"
        }
      ],
      "name": "register",
      "outputs": [
        {
          "name": "success",
          "type": "bool"
        }
      ],
      "payable": false,
      "stateMutability": "nonpayable",
      "type": "function"
    },
    {
      "constant": false,
      "inputs": [
        {
          "name": "_voter",
          "type": "bytes"
        },
        {
          "name": "_party",
          "type": "string"
        }
      ],
      "name": "spend",
      "outputs": [
        {
          "name": "success",
          "type": "bool"
        }
      ],
      "payable": false,
      "stateMutability": "nonpayable",
      "type": "function"
    },
    {
      "constant": false,
      "inputs": [],
      "name": "destroy",
      "outputs": [],
      "payable": false,
      "stateMutability": "nonpayable",
      "type": "function"
    }
  ],
  "bytecode": "0x60806040523480156200001157600080fd5b50604051620023e9380380620023e9833981018060405260208110156200003757600080fd5b8101908080516401000000008111156200005057600080fd5b828101905060208101848111156200006757600080fd5b81518560018202830111640100000000821117156200008557600080fd5b505092919050505033600960006101000a81548173ffffffffffffffffffffffffffffffffffffffff021916908373ffffffffffffffffffffffffffffffffffffffff1602179055508060029080519060200190620000e6929190620002b5565b506000600460006101000a81548160ff021916908360028111156200010757fe5b0217905550600080819055506040518060400160405280600481526020017f564f5445000000000000000000000000000000000000000000000000000000008152506003908051906020019062000160929190620002b5565b507f212d61ef008336d50352fed9c50b17bc14b5a92fcc3f845635f7c68e0b20f96460026003604051808060200180602001838103835285818154600181600116156101000203166002900481526020019150805460018160011615610100020316600290048015620002175780601f10620001eb5761010080835404028352916020019162000217565b820191906000526020600020905b815481529060010190602001808311620001f957829003601f168201915b50508381038252848181546001816001161561010002031660029004815260200191508054600181600116156101000203166002900480156200029e5780601f1062000272576101008083540402835291602001916200029e565b820191906000526020600020905b8154815290600101906020018083116200028057829003601f168201915b505094505050505060405180910390a15062000364565b828054600181600116156101000203166002900490600052602060002090601f016020900481019282601f10620002f857805160ff191683800117855562000329565b8280016001018555821562000329579182015b82811115620003285782518255916020019190600101906200030b565b5b5090506200033891906200033c565b5090565b6200036191905b808211156200035d57600081600090555060010162000343565b5090565b90565b61207580620003746000396000f3fe608060405234801561001057600080fd5b50600436106100cf5760003560e01c806383197ef01161008c578063a69beaba11610066578063a69beaba14610650578063c19d93fb1461077c578063c3403ddf146107a8578063f851a440146107b2576100cf565b806383197ef01461045957806392255fbf1461046357806395d89b41146105cd576100cf565b806306fdde03146100d45780630d15fd77146101575780631ec6b60a146101755780632ba9d82a1461017f5780635aba6426146102e95780637c99279a1461043b575b600080fd5b6100dc6107fc565b6040518080602001828103825283818151815260200191508051906020019080838360005b8381101561011c578082015181840152602081019050610101565b50505050905090810190601f1680156101495780820380516001836020036101000a031916815260200191505b509250505060405180910390f35b61015f61089a565b6040518082815260200191505060405180910390f35b61017d6108a0565b005b6102cf6004803603604081101561019557600080fd5b81019080803590602001906401000000008111156101b257600080fd5b8201836020820111156101c457600080fd5b803590602001918460018302840111640100000000831117156101e657600080fd5b91908080601f016020809104026020016040519081016040528093929190818152602001838380828437600081840152601f19601f8201169050808301925050505050505091929192908035906020019064010000000081111561024957600080fd5b82018360208201111561025b57600080fd5b8035906020019184600183028401116401000000008311171561027d57600080fd5b91908080601f016020809104026020016040519081016040528093929190818152602001838380828437600081840152601f19601f820116905080830192505050505050509192919290505050610a48565b604051808215151515815260200191505060405180910390f35b610439600480360360408110156102ff57600080fd5b810190808035906020019064010000000081111561031c57600080fd5b82018360208201111561032e57600080fd5b8035906020019184600183028401116401000000008311171561035057600080fd5b91908080601f016020809104026020016040519081016040528093929190818152602001838380828437600081840152601f19601f820116905080830192505050505050509192919290803590602001906401000000008111156103b357600080fd5b8201836020820111156103c557600080fd5b803590602001918460018302840111640100000000831117156103e757600080fd5b91908080601f016020809104026020016040519081016040528093929190818152602001838380828437600081840152601f19601f820116905080830192505050505050509192919290505050610f51565b005b61044361139f565b6040518082815260200191505060405180910390f35b6104616113a5565b005b6105b36004803603604081101561047957600080fd5b810190808035906020019064010000000081111561049657600080fd5b8201836020820111156104a857600080fd5b803590602001918460018302840111640100000000831117156104ca57600080fd5b91908080601f016020809104026020016040519081016040528093929190818152602001838380828437600081840152601f19601f8201169050808301925050505050505091929192908035906020019064010000000081111561052d57600080fd5b82018360208201111561053f57600080fd5b8035906020019184600183028401116401000000008311171561056157600080fd5b91908080601f016020809104026020016040519081016040528093929190818152602001838380828437600081840152601f19601f820116905080830192505050505050509192919290505050611532565b604051808215151515815260200191505060405180910390f35b6105d56118a0565b6040518080602001828103825283818151815260200191508051906020019080838360005b838110156106155780820151818401526020810190506105fa565b50505050905090810190601f1680156106425780820380516001836020036101000a031916815260200191505b509250505060405180910390f35b61067c6004803603602081101561066657600080fd5b810190808035906020019092919050505061193e565b60405180868152602001851515151581526020018060200180602001848152602001838103835286818151815260200191508051906020019080838360005b838110156106d65780820151818401526020810190506106bb565b50505050905090810190601f1680156107035780820380516001836020036101000a031916815260200191505b50838103825285818151815260200191508051906020019080838360005b8381101561073c578082015181840152602081019050610721565b50505050905090810190601f1680156107695780820380516001836020036101000a031916815260200191505b5097505050505050505060405180910390f35b610784611ab1565b6040518082600281111561079457fe5b60ff16815260200191505060405180910390f35b6107b0611ac4565b005b6107ba611c64565b604051808273ffffffffffffffffffffffffffffffffffffffff1673ffffffffffffffffffffffffffffffffffffffff16815260200191505060405180910390f35b60028054600181600116156101000203166002900480601f0160208091040260200160405190810160405280929190818152602001828054600181600116156101000203166002900480156108925780601f1061086757610100808354040283529160200191610892565b820191906000526020600020905b81548152906001019060200180831161087557829003601f168201915b505050505081565b60005481565b3373ffffffffffffffffffffffffffffffffffffffff16600960009054906101000a900473ffffffffffffffffffffffffffffffffffffffff1673ffffffffffffffffffffffffffffffffffffffff1614610963576040517f08c379a00000000000000000000000000000000000000000000000000000000081526004018080602001828103825260168152602001807f4f6e6c79206f776e65722063616e20646f20746869730000000000000000000081525060200191505060405180910390fd5b6000600281111561097057fe5b600460009054906101000a900460ff16600281111561098b57fe5b146109e1576040517f08c379a0000000000000000000000000000000000000000000000000000000008152600401808060200182810382526038815260200180611f896038913960400191505060405180910390fd5b6001600460006101000a81548160ff02191690836002811115610a0057fe5b021790555060006001819055507f18077c5a69d6099a24750a06200f090aaed34dcfbea9b0bc882fa9187a40a54d6000546040518082815260200191505060405180910390a1565b6000806002846040518082805190602001908083835b60208310610a815780518252602082019150602081019050602083039250610a5e565b6001836020036101000a038019825116818451168082178552505050505050905001915050602060405180830381855afa158015610ac3573d6000803e3d6000fd5b5050506040513d6020811015610ad857600080fd5b8101908080519060200190929190505050905060016007600560008481526020019081526020016000206003016040518082805460018160011615610100020316600290048015610b605780601f10610b3e576101008083540402835291820191610b60565b820191906000526020600020905b815481529060010190602001808311610b4c575b50509150509081526020016040518091039020846040518082805190602001908083835b60208310610ba75780518252602082019150602081019050602083039250610b84565b6001836020036101000a03801982511681845116808217855250505050505090500191505090815260200160405180910390205414610c31576040517f08c379a000000000000000000000000000000000000000000000000000000000815260040180806020018281038252602a815260200180611f39602a913960400191505060405180910390fd5b600160056000838152602001908152602001600020600001541015610cbe576040517f08c379a000000000000000000000000000000000000000000000000000000000815260040180806020018281038252601b8152602001807f54686520766f746572206973206e6f742072656769737465726564000000000081525060200191505060405180910390fd5b600015156005600083815260200190815260200160002060010160009054906101000a900460ff16151514610d3e576040517f08c379a0000000000000000000000000000000000000000000000000000000008152600401808060200182810382526026815260200180611f636026913960400191505060405180910390fd5b60016005600083815260200190815260200160002060010160006101000a81548160ff0219169083151502179055506001805401600181905550600560008281526020019081526020016000206003016040518082805460018160011615610100020316600290048015610de95780601f10610dc7576101008083540402835291820191610de9565b820191906000526020600020905b815481529060010190602001808311610dd5575b50509150506040518091039020836040518082805190602001908083835b60208310610e2a5780518252602082019150602081019050602083039250610e07565b6001836020036101000a03801982511681845116808217855250505050505090500191505060405180910390207f06cc8c128a4aaafae16f29bd640336110da2d98e8ead2a9180889ee2de445eec836040518082815260200191505060405180910390a3610f4683600560008481526020019081526020016000206003018054600181600116156101000203166002900480601f016020809104026020016040519081016040528092919081815260200182805460018160011615610100020316600290048015610f3c5780601f10610f1157610100808354040283529160200191610f3c565b820191906000526020600020905b815481529060010190602001808311610f1f57829003601f168201915b5050505050611c8a565b600191505092915050565b3373ffffffffffffffffffffffffffffffffffffffff16600960009054906101000a900473ffffffffffffffffffffffffffffffffffffffff1673ffffffffffffffffffffffffffffffffffffffff1614611014576040517f08c379a00000000000000000000000000000000000000000000000000000000081526004018080602001828103825260168152602001807f4f6e6c79206f776e65722063616e20646f20746869730000000000000000000081525060200191505060405180910390fd5b6000600281111561102157fe5b600460009054906101000a900460ff16600281111561103c57fe5b14611092576040517f08c379a000000000000000000000000000000000000000000000000000000000815260040180806020018281038252603d815260200180611fc1603d913960400191505060405180910390fd5b60006006836040518082805190602001908083835b602083106110ca57805182526020820191506020810190506020830392506110a7565b6001836020036101000a0380198251168184511680821785525050505050509050019150509081526020016040518091039020826040518082805190602001908083835b60208310611131578051825260208201915060208101905060208303925061110e565b6001836020036101000a03801982511681845116808217855250505050505090500191505090815260200160405180910390208190555060016007836040518082805190602001908083835b602083106111a0578051825260208201915060208101905060208303925061117d565b6001836020036101000a0380198251168184511680821785525050505050509050019150509081526020016040518091039020826040518082805190602001908083835b6020831061120757805182526020820191506020810190506020830392506111e4565b6001836020036101000a03801982511681845116808217855250505050505090500191505090815260200160405180910390208190555060016008836040518082805190602001908083835b602083106112765780518252602082019150602081019050602083039250611253565b6001836020036101000a038019825116818451168082178552505050505050905001915050908152602001604051809103902081905550806040518082805190602001908083835b602083106112e157805182526020820191506020810190506020830392506112be565b6001836020036101000a0380198251168184511680821785525050505050509050019150506040518091039020826040518082805190602001908083835b60208310611342578051825260208201915060208101905060208303925061131f565b6001836020036101000a03801982511681845116808217855250505050505090500191505060405180910390207f4594c63f154e8d86fdf16b444fde2711bea38edf04d72f763cf6d456a5a4737d60405160405180910390a35050565b60015481565b3373ffffffffffffffffffffffffffffffffffffffff16600960009054906101000a900473ffffffffffffffffffffffffffffffffffffffff1673ffffffffffffffffffffffffffffffffffffffff1614611468576040517f08c379a00000000000000000000000000000000000000000000000000000000081526004018080602001828103825260168152602001807f4f6e6c79206f776e65722063616e20646f20746869730000000000000000000081525060200191505060405180910390fd5b3373ffffffffffffffffffffffffffffffffffffffff16ff5b81548152906001019060200180831161148157829003601f1682019150508381038252848181546001816001161561010002031660029004815260200191508054600181600116156101000203166002900480156115205780601f106114f557610100808354040283529160200191611520565b820191906000526020600020905b81548152906001019060200180831161150357829003601f168201915b505094505050505060405180910390a1565b600080600281111561154057fe5b600460009054906101000a900460ff16600281111561155b57fe5b146115ce576040517f08c379a00000000000000000000000000000000000000000000000000000000081526004018080602001828103825260148152602001807f526567697374726174696f6e20636c6f7365642000000000000000000000000081525060200191505060405180910390fd5b60016008836040518082805190602001908083835b6020831061160657805182526020820191506020810190506020830392506115e3565b6001836020036101000a03801982511681845116808217855250505050505090500191505090815260200160405180910390205414611690576040517f08c379a0000000000000000000000000000000000000000000000000000000008152600401808060200182810382526023815260200180611ffe6023913960400191505060405180910390fd5b60006002846040518082805190602001908083835b602083106116c857805182526020820191506020810190506020830392506116a5565b6001836020036101000a038019825116818451168082178552505050505050905001915050602060405180830381855afa15801561170a573d6000803e3d6000fd5b5050506040513d602081101561171f57600080fd5b8101908080519060200190929190505050905060006005600083815260200190815260200160002060000154146117be576040517f08c379a00000000000000000000000000000000000000000000000000000000081526004018080602001828103825260188152602001807f566f74657220616c72656164792072656769737465726564000000000000000081525060200191505060405180910390fd5b6001600054016000819055506117d2611e62565b6040518060a00160405280600054815260200160001515815260200160405180602001604052806000815250815260200185815260200142815250905080600560008481526020019081526020016000206000820151816000015560208201518160010160006101000a81548160ff0219169083151502179055506040820151816002019080519060200190611869929190611e93565b506060820151816003019080519060200190611886929190611e93565b506080820151816004015590505060019250505092915050565b60038054600181600116156101000203166002900480601f0160208091040260200160405190810160405280929190818152602001828054600181600116156101000203166002900480156119365780601f1061190b57610100808354040283529160200191611936565b820191906000526020600020905b81548152906001019060200180831161191957829003601f168201915b505050505081565b60056020528060005260406000206000915090508060000154908060010160009054906101000a900460ff1690806002018054600181600116156101000203166002900480601f016020809104026020016040519081016040528092919081815260200182805460018160011615610100020316600290048015611a035780601f106119d857610100808354040283529160200191611a03565b820191906000526020600020905b8154815290600101906020018083116119e657829003601f168201915b505050505090806003018054600181600116156101000203166002900480601f016020809104026020016040519081016040528092919081815260200182805460018160011615610100020316600290048015611aa15780601f10611a7657610100808354040283529160200191611aa1565b820191906000526020600020905b815481529060010190602001808311611a8457829003601f168201915b5050505050908060040154905085565b600460009054906101000a900460ff1681565b3373ffffffffffffffffffffffffffffffffffffffff16600960009054906101000a900473ffffffffffffffffffffffffffffffffffffffff1673ffffffffffffffffffffffffffffffffffffffff1614611b87576040517f08c379a00000000000000000000000000000000000000000000000000000000081526004018080602001828103825260168152602001807f4f6e6c79206f776e65722063616e20646f20746869730000000000000000000081525060200191505060405180910390fd5b60016002811115611b9457fe5b600460009054906101000a900460ff166002811115611baf57fe5b14611c05576040517f08c379a00000000000000000000000000000000000000000000000000000000081526004018080602001828103825260298152602001806120216029913960400191505060405180910390fd5b6002600460006101000a81548160ff02191690836002811115611c2457fe5b02179055507fab9c095971baf1dd1915aaeb21473fc1fa17ef8c3285543e11b04c67d752bb6d6001546040518082815260200191505060405180910390a1565b600960009054906101000a900473ffffffffffffffffffffffffffffffffffffffff1681565b60016006826040518082805190602001908083835b60208310611cc25780518252602082019150602081019050602083039250611c9f565b6001836020036101000a0380198251168184511680821785525050505050509050019150509081526020016040518091039020836040518082805190602001908083835b60208310611d295780518252602082019150602081019050602083039250611d06565b6001836020036101000a038019825116818451168082178552505050505050905001915050908152602001604051809103902054016006826040518082805190602001908083835b60208310611d945780518252602082019150602081019050602083039250611d71565b6001836020036101000a0380198251168184511680821785525050505050509050019150509081526020016040518091039020836040518082805190602001908083835b60208310611dfb5780518252602082019150602081019050602083039250611dd8565b6001836020036101000a0380198251168184511680821785525050505050509050019150509081526020016040518091039020819055505050565b82811115611e51578251825591602001919060010190611e36565b509050611e5e9190611f13565b5090565b6040518060a00160405280600081526020016000151581526020016060815260200160608152602001600081525090565b828054600181600116156101000203166002900490600052602060002090601f016020900481019282601f10611ed457805160ff1916838001178555611f02565b82800160010185558215611f02579182015b82811115611f01578251825591602001919060010190611ee6565b5b509050611f0f9190611f13565b5090565b611f3591905b80821115611f31576000816000905550600101611f19565b5090565b9056fe5061727479206e6f74207265676973746572656420666f72207468697320636f6e7374697475656e63795468697320766f74657220746f6b656e2068617320616c7265616479206265656e2075736564566f74696e672077696c6c207374617274206f6e6c7920696620726567697374726174696f6e2077617320616374697665206265666f7265526567697374726174696f6e206f662070617274696573206973206f6e6c7920616c6c6f77656420696e20726567697374726174696f6e2070686173655468697320636f6e7374697475656e6379206973206e6f742072656769737465726564566f74696e672077696c6c20656e64206f6e6c79206166746572206974206861732073746172746564a165627a7a7230582070f25502e1c07d770552be1d5ea477fc16a39de9bbf9e4c31178c4314ee9cd770029",
  "source": "pragma solidity ^0.5.1;\r\n\r\ncontract Vote_Token\r\n{\r\n\r\n    // primary variable declarations\r\n\r\n    uint256 public totalVotes;  //total vote tokens distributed\r\n\r\n    uint256 public totalVotesCasted;    // to store the total number of votes casted\r\n\r\n    string public name;// to store the name of the vote token distributed\r\n\r\n    string public symbol;// to store the name of the vote token distributed\r\n\r\n\r\n    //structure of a vote token\r\n\r\n    struct Vote {\r\n        uint256 _id;\r\n        bool _spent;\r\n        string _party;\r\n        string _constituency;\r\n        uint256 _time;\r\n    }\r\n\r\n\r\n    //modifier for making function usable by only admin\r\n\r\n    modifier onlyOwner(){\r\n        require(admin == msg.sender,\"Only owner can do this\");\r\n        _;\r\n    }\r\n\r\n\r\n    //Event emitted when a vote token is spent\r\n\r\n    event VoteEvent (\r\n        bytes32 _voterid,\r\n        string indexed _party,\r\n        string indexed _constituency\r\n    );\r\n\r\n\r\n    //Event emitted when the voting starts\r\n\r\n    event VotingStartEvent(\r\n        uint256 _totalVotes\r\n    );\r\n\r\n\r\n    //Event emitted when a new party is registered\r\n\r\n    event PartyRegistryEvent(\r\n            string indexed _constituency,\r\n            string indexed _party\r\n        );\r\n\r\n\r\n    //Event emitted when the voting process ends\r\n\r\n    event VotingEndEvent(\r\n            uint256 _totalVotesCasted\r\n        );\r\n\r\n    //Event emitted when the registering of users start\r\n\r\n    event RegisteringStartEvent(\r\n            string _name,\r\n            string _symbol\r\n    );\r\n\r\n\r\n\r\n    //enum that contains the state of the voting process\r\n\r\n    enum State {Registering, Voting, End }\r\n\r\n    State public state;\r\n\r\n\r\n    //mapping to map voter id to vote\r\n\r\n    mapping (bytes32 => Vote) public vote;\r\n\r\n\r\n    //mapping to map constituency and party to votes\r\n\r\n    mapping (string => mapping(string => uint256)) vote_count;\r\n\r\n    //to store whether party is registered in the constituency or not\r\n    mapping (string => mapping(string => uint)) party_registery;\r\n\r\n    //to store whether constituecy exist or not\r\n    mapping (string => uint) constituency_registery;\r\n\r\n    // to store address of the admin who deployed the constract\r\n\r\n    address public admin;\r\n\r\n\r\n    // to initiliaze the value upon contract deployment\r\n\r\n    constructor(string memory _name) public{\r\n        admin = msg.sender;\r\n        name = _name;\r\n        state = State.Registering;\r\n        totalVotes = 0;\r\n        symbol = \"VOTE\";\r\n\r\n        emit RegisteringStartEvent(\r\n            name,symbol\r\n        );\r\n    }\r\n\r\n\r\n    // function to register a party from a constituency\r\n\r\n    function registerParty(string memory _constituency, string memory _party)\r\n    public\r\n    onlyOwner {\r\n        require(state == State.Registering,'Registration of parties is only allowed in registration phase');\r\n\r\n        vote_count[_constituency][_party] = 0;\r\n        party_registery[_constituency][_party] = 1;\r\n        constituency_registery[_constituency] = 1;\r\n\r\n        emit PartyRegistryEvent(\r\n            _constituency,\r\n            _party\r\n        );\r\n    }\r\n\r\n\r\n    // function called by admin to upgrade the state to voting\r\n\r\n    function startVoting()\r\n    public\r\n    onlyOwner {\r\n        require(state == State.Registering,'Voting will start only if registration was active before');\r\n        state = State.Voting;\r\n        totalVotesCasted = 0;\r\n        emit VotingStartEvent(\r\n            totalVotes\r\n        );\r\n    }\r\n\r\n\r\n    //function called by admin to upgrade the end the voting process\r\n\r\n    function endVoting()\r\n    public\r\n    onlyOwner{\r\n        require(state == State.Voting,'Voting will end only after it has started');\r\n        state = State.End;\r\n        emit VotingEndEvent(\r\n            totalVotesCasted\r\n        );\r\n    }\r\n\r\n\r\n    //function called by any account to register a user for vote\r\n\r\n    function register(bytes memory x,string memory _constituency)\r\n    public\r\n    returns (bool success)\r\n    {\r\n\r\n        require(state == State.Registering, 'Registration closed ');\r\n\r\n        require(constituency_registery[_constituency] == 1,'This constituency is not registered');\r\n\r\n        bytes32 _voterid = sha256(x);\r\n\r\n        require(vote[_voterid]._id == 0,'Voter already registered');\r\n\r\n        totalVotes = totalVotes + 1;\r\n\r\n        Vote memory vote_voter = Vote(totalVotes,false,\"\",_constituency,block.timestamp);\r\n\r\n        vote[_voterid] = vote_voter;\r\n\r\n        return true;\r\n    }\r\n\r\n\r\n    //internal function to increment the count of votes a party get in a constituency\r\n\r\n    function voteincrement(string memory _party,string memory _constituency)\r\n    internal\r\n    {\r\n        vote_count[_constituency][_party] = vote_count[_constituency][_party] + 1;\r\n    }\r\n\r\n\r\n    //function to spend the vote tokens\r\n\r\n    function spend(bytes memory _voter,string memory _party)\r\n    public\r\n    returns(bool success)\r\n    {\r\n        bytes32 _voterid = sha256(_voter);\r\n\r\n        require(party_registery[vote[_voterid]._constituency][_party] == 1,'Party not registered for this constituency');\r\n\r\n        require(vote[_voterid]._id >= 1,'The voter is not registered');\r\n\r\n        require(vote[_voterid]._spent == false,'This voter token has already been used');\r\n\r\n        vote[_voterid]._spent = true;\r\n\r\n        totalVotesCasted = totalVotesCasted + 1;\r\n\r\n        emit VoteEvent(_voterid,_party,vote[_voterid]._constituency);\r\n\r\n        voteincrement(_party,vote[_voterid]._constituency);\r\n\r\n        return true;\r\n\r\n    }\r\n\r\n    //function to revert all the changes\r\n\r\n    function destroy()\r\n    public\r\n    onlyOwner\r\n    {\r\n        selfdestruct(msg.sender);\r\n\r\n        admin = msg.sender;\r\n        name = \"Vote Token\";\r\n        state = State.Registering;\r\n        totalVotes = 0;\r\n        symbol = \"VOTE\";\r\n\r\n        emit RegisteringStartEvent(\r\n            name,symbol\r\n        );\r\n    }\r\n}",
  "sourcePath": "c:/Users/user/Desktop/codefundo/Block-chain-based-Voting-System/contracts/Vote_Token.sol",
  "compiler": {
    "name": "solc",
    "version": "0.5.8+commit.23d335f2.Emscripten.clang"
  },
  "schemaVersion": "3.0.11",
  "updatedAt": "2019-08-19T14:53:31.397Z",
  "devdoc": {
    "methods": {}
  },
  "userdoc": {
    "methods": {}
  }
}